{
  "contractName": "ReadWrite",
  "abi": [
    {
      "constant": true,
      "inputs": [],
      "name": "readState",
      "outputs": [
        {
          "name": "",
          "type": "uint256"
        }
      ],
      "payable": false,
      "stateMutability": "view",
      "type": "function",
      "signature": "0x2778c334"
    },
    {
      "constant": false,
      "inputs": [
        {
          "name": "val",
          "type": "uint256"
        }
      ],
      "name": "writeState",
      "outputs": [
        {
          "name": "",
          "type": "uint256"
        }
      ],
      "payable": false,
      "stateMutability": "nonpayable",
      "type": "function",
      "signature": "0x628e51f1"
    }
  ],
  "bytecode": "0x608060405234801561001057600080fd5b50610108806100206000396000f3fe6080604052600436106049576000357c0100000000000000000000000000000000000000000000000000000000900463ffffffff1680632778c33414604e578063628e51f1146076575b600080fd5b348015605957600080fd5b50606060c1565b6040518082815260200191505060405180910390f35b348015608157600080fd5b5060ab60048036036020811015609657600080fd5b810190808035906020019092919050505060ca565b6040518082815260200191505060405180910390f35b60008054905090565b6000816000540160008190555091905056fea165627a7a7230582046f5e484126ce49ce968a74070a60723207d2b6ea97388bd169692ee5960ee8a0029",
  "source": "pragma solidity >=0.4.25;\r\n\r\ncontract ReadWrite {\r\n    uint256 stateCount;\r\n    function readState() public view returns (uint256) {\r\n        return stateCount;\r\n    }\r\n    function writeState(uint256 val) public returns (uint256) {\r\n        stateCount = stateCount + val;\r\n    }\r\n}",
  "sourcePath": "/mnt/c/Users/DaoHoang/Google Drive/technology/projects/dapp-template/contracts/ReadWrite.sol",
  "compiler": {
    "name": "solc",
    "version": "0.5.0+commit.1d4f565a.Emscripten.clang"
  },
  "schemaVersion": "3.0.2",
  "updatedAt": "2019-03-03T15:54:42.931Z",
  "devdoc": {
    "methods": {}
  },
  "userdoc": {
    "methods": {}
  }
}